:020000040000FA
:1000000000180020FD04000015050000715B0000D1
:1000100000000000000000000000000000000000E0
:1000200000000000000000000000000019050000B2
:1000300000000000000000001B05000065720000C9
:10004000ED42000023050000270500002B050000FD
:100050004F0500004F0500004F0500004F05000050
:100060002F05000033050000370500003B050000A8
:10007000B97300004305000041740000E51700005B
:100080004F050000697300004F0500004F05000098
:10009000F56C00004F0500004F0500004B05000007
:1000A0004F0500004F0500004F0500004F05000000
:1000B000B56400004F0500004F050000C168000056
:1000C0000000000000000000000000000000000030
:1000D0000000000000000000000000000000000020
:1000E0000000000000000000000000000000000010
:1000F0000000000000000000000000000000000000
:10040000FFFFFFFFFFFFFFFFFFFFFFFFFEFFFFFFFD
:1004100000F002F800F045F80CA030C808382418A5
:100420002D18A246671EAB4654465D46AC4201D12C
:1004300000F037F87E460F3E0FCCB6460126334219
:1004400000D0FB1AA246AB4633431847BC910000CC
:10045000DC9100000023002400250026103A01D37F
:1004600078C1FBD8520700D330C100D50B6070476C
:1004700010B5662902D108F097FF10BD642902D19A
:1004800000F0F0F810BD002010BD1FB500F088FD91
:1004900004000020002108F06BFEE0601FBD10B5D5
:1004A00010BD04488546FFF7F0FF08F041FD01F05C
:1004B00029F900000018002003B4FFF7F0FF03BC87
:1004C00001F06CF970B505460C46164602E00FCCFB
:1004D0000FC5103E102EFAD2082E02D303CC03C54E
:1004E000083E042E07D301CC01C5361F03E0217856
:1004F0002970641C6D1C761EF9D270BD72B6154849
:10050000154901600A6882F308881448804762B67A
:1005100013480047FEE7FEE7FEE7FEE7FEE7114867
:10052000004711480047114800471148004711484B
:10053000004711480047114800471148004711483B
:10054000004711480047114800471148004711482B
:100550000047000008ED00E0000000007972000094
:1005600011040000DD42000051440000614400001D
:10057000714400004F0500004F0500004F050000CA
:100580004F0500009D7300000974000025740000F1
:100590004F0500004F0500000FB41CB5074B06AA1D
:1005A0007B4469460090059800F0C5FC0020694630
:1005B00000F0D4FC1CBC08BC04B01847B90900000A
:1005C0000FB41CB50C0007AA009001D00019401E02
:1005D000084B7B4469460190069800F0ACFC002C67
:1005E00003D06946002000F0B9FC1CBC08BC04B074
:1005F0001847000091090000F8B50E460446002097
:1006000020622046E1688847002829D0252802D0AA
:100610006268A16820E0E16820460027884705005D
:100620001ED028464138192802D80127FF0220355C
:100630003246204627602946FFF71AFF002808D0D7
:10064000012804D0F61DF608F6000836D9E7361D55
:10065000D7E762682846A1689047206A401CCFE728
:10066000206AF8BDF7B5002575291068009914A611
:1006700011D0C046C046002802DA404211A608E068
:10068000009909688A0701D50FA602E0490704D539
:100690000EA6012501E0C046C046009F0024243775
:1006A00004E000F068FC30313955641C0028F8D1B2
:1006B0002B4632462146009800F0D3F9FEBD0000DB
:1006C000000000002D0000002B00000020000000B2
:1006D000034670B502460B439B070FD10E4CE60153
:1006E00000E008C208C91D1B9D433542F9D0D9B2AC
:1006F0001170521C00290DD01B0AF8E70B78491C19
:100700001370521C002B05D00B78491C1370521C1F
:10071000002BF3D170BD00000101010130B5441C74
:1007200003E00178401C00290DD08107F9D10B4B63
:10073000DD0104C8D11A91432940FAD0001B0A06F2
:1007400003D0C01E30BD001B30BD0A0401D0801E86
:1007500030BD0902FCD0401E30BD00000101010186
:10076000F8B5042A2CD3830712D00B78491C0370E8
:10077000401C521E83070BD00B78491C0370401C91
:10078000521E830704D00B78491C0370401C521E74
:100790008B079B0F05D0C91ADF002023DE1B08C979
:1007A0000AE0FFF78FFEF8BD1D4608C9FD401C4654
:1007B000B4402C4310C0121F042AF5D2F308C91A02
:1007C000521EF0D40B78491C0370401C521EEAD410
:1007D0000B78491C0370401C012AE4D4097801708D
:1007E000F8BD01E004C0091F0429FBD28B0701D525
:1007F0000280801CC90700D00270704700290BD00E
:10080000C30702D00270401C491E022904D383078B
:1008100002D50280801C891EE3E70022EEE7002259
:10082000DFE70378C2781946437812061B021943A2
:100830008378C0781B04194311430902090A000692
:1008400008437047020A08704A70020C8A70020E50
:10085000CA707047002203098B422CD3030A8B42D3
:1008600011D300239C464EE003460B433CD40022A8
:1008700043088B4231D303098B421CD3030A8B42BA
:1008800001D394463FE0C3098B4201D3CB01C01A88
:10089000524183098B4201D38B01C01A5241430953
:1008A0008B4201D34B01C01A524103098B4201D341
:1008B0000B01C01A5241C3088B4201D3CB00C01AAE
:1008C000524183088B4201D38B00C01A5241430826
:1008D0008B4201D34B00C01A5241411A00D201464B
:1008E0005241104670475DE0CA0F00D049420310E4
:1008F00000D34042534000229C4603098B422DD333
:10090000030A8B4212D3FC22890112BA030A8B42DA
:100910000CD3890192118B4208D3890192118B4229
:1009200004D389013AD0921100E08909C3098B42AE
:1009300001D3CB01C01A524183098B4201D38B01F1
:10094000C01A524143098B4201D34B01C01A524194
:1009500003098B4201D30B01C01A5241C3088B42D9
:1009600001D3CB00C01A524183088B4201D38B00C4
:10097000C01A5241D9D243088B4201D34B00C01A4E
:100980005241411A00D20146634652415B10104663
:1009900001D34042002B00D54942704763465B10AB
:1009A00000D3404201B50020C046C04602BD000051
:1009B0000121C9050123411842001B06D3185B0E13
:1009C0000AD0C1100722D206891840075242D142EC
:1009D00001D5520089187047090208D50146002A3E
:1009E00003D0C10FC907002070471046704742026C
:1009F00002D0002002497047072109050143F4E7AE
:100A00000000F87F1F22030C02D10F2200041CD02B
:100A1000030E01D10002083A030F01D10001121F99
:100A2000830F01D18000921E002801DB4000521E7E
:100A3000D2055118021251181922904004D3491CB2
:100A4000002801D14908490008467047C10FC9076D
:100A500000D04042012292071143D3E701218907C8
:100A6000D0E7FFB504460D4681B0243000902168E0
:100A7000880604D51022E0699143216000E001203E
:100A8000A84201DD471B00E000270498A1697A19FC
:100A90001018081AA0612078C00602D42046C0466B
:100AA000C046002608E003986268A168805D904710
:100AB000206A401C761C206204988642F3DB207872
:100AC000C0060AD52046C046C04606E06268A16856
:100AD00030209047206A401C206238467F1E002844
:100AE000F4DC07E000986268A168405D9047206AE6
:100AF000401C206228466D1E0028F3DC2046C046BC
:100B0000C0462078000602D5022005B0F0BD0120C5
:100B1000FBE700007047FFB50C461E468FB003CAC6
:100B2000089009914F007D0D00D16D1E00210846EF
:100B30000020C0460321099A89050840002A03DAEB
:100B40008200801840080840800D01280A9002DDCC
:100B50000020C0430A90089807430DD0F048F1499F
:100B6000281848430714189800281DD07542291EDC
:100B70001DDD0A9842421BE01898012802D000208F
:100B8000302104E00020F24305E02154401CB04233
:100B9000FBDB30460022189B002121540F998B600B
:100BA0000A60486013B0F0BDBD1B6D1CDFE70A9AF8
:100BB000002900DA69420BA800F078FA0BAB07CBEA
:100BC00003AB07C30899099800F0DCFA6B4607C32A
:100BD0000146D5480918002D00910BDDD249039834
:100BE0000A9A49424018002303A90390684600F07E
:100BF00039FD08E003990A9A0023081803A9039015
:100C0000684600F0D9FC6B4607C30004000C03D013
:100C10000020C043410800E01046189A002A03D083
:100C20000022009215461EE0751E05D400F0BCF9A6
:100C3000303262556D1EF9D501220843079602D065
:100C400000227F1C04E02078302801D100227F1E82
:100C5000002A069787D01EE0112D07DA00F0A4F9CC
:100C6000303262556D1C02460A43F5D1084303D069
:100C70000098002819D00EE00021681E05E0235CD2
:100C8000625C63542254401E491C8142F7DBA81B5E
:100C9000401E07950690079A18990020A0540F98B7
:100CA000079B069A81600CC07CE7112600201890F3
:100CB00059E7D21DF0B50D460446D10893B0C900DE
:100CC00003C90C900D9107F0F3F902460D98C00F7F
:100CD00001D02D2007E02068810701D52B2002E0FC
:100CE0004007C00F4001032A0F9001D0072A05DBFF
:100CF00003462946204600F095F90EE1207880064B
:100D000001D5E76900E006272846652D04D066284E
:100D100014D0672D69D12DE00020112F009001DB48
:100D2000112300E07B1C0CAA03A910A8FFF7F3FE17
:100D30001199002610987D1C0E9142E001203B463F
:100D40000CAAC0070B900120009003A910A8FFF780
:100D5000E2FE119D12981099002600280E9501D1EF
:100D6000781C0D18781B02D446427D1C761EE81BA9
:100D700000903AE0012F00DA01270020112F0090A7
:100D800001DD112300E03B460CAA03A910A8FFF7E0
:100D9000C2FE11993D46109800260E912178090750
:100DA0000BD40E99A94200DA0D4603A9012D04DDEA
:100DB0004A19203AD27F302A06D0B84201DA011D02
:100DC00004DA012100910FE06D1EEFE7002802DC3C
:100DD00086192D1A03E0411CA94200DD0D46801B37
:100DE000401C00900120C0070B902078000705D41C
:100DF0000098A84202DB0020C04300906946002012
:100E0000C8720B98012102AF0337C907884225D069
:100E1000022010902B2011900B9800280BDA4042F2
:100E20000B902D20119006E00B9800F0A4F83031C3
:100E30007F1E0B9039701099481E00291090F3DC2A
:100E40000B980028F0D111987F1E3870208800057B
:100E500001D5452000E065207F1E387001A8C01B29
:100E6000C01D0B900F98002800D001204119009858
:100E7000C01709180B980818A169081A401EA0612C
:100E80002078C00602D42046C046C0460F980028ED
:100E900005D06268A1689047206A401C20622078D3
:100EA000C00625D52046C046C04621E0002E07DBFF
:100EB0000E98B04204DD03A86268805DA16802E07C
:100EC0006268A16830209047206A761C401C20622E
:100ED0000098401E002800900AD100F061F8C06818
:100EE00062680168405CA1689047206A401C2062EB
:100EF00028466D1E0028D9DC07E062683878A168B2
:100F00007F1C9047206A401C20620B99481E0029D4
:100F10000B90F2DC2046C046C046032042E60000AB
:100F200001FCFFFF104D0000E1DFFFFF01694A1CDB
:100F300002610878704700B58FB0029100210591D9
:100F40000549019379440391114604906846FFF7DF
:100F500053FB0FB000BD0000E5FFFFFF0A681070F3
:100F6000521C0A6070470CC908399A4202D2531CBD
:100F70000B601070704701468008081A02091018AB
:100F8000020A1018020C1018C00882001218520031
:100F9000891A01E0401C0A390A29FBD27047000077
:100FA00000487047780700200B4670B50246890755
:100FB0008008084319469D08141AA9412509080705
:100FC000054308092C194841250A01060D43010A69
:100FD0002C194141200C0D0428430D0C00194D41E2
:100FE000002140194D41C00869070843E908840FF2
:100FF0008D002543840024184D4124196D41121B96
:10100000AB4107E00925ED432C115219634100243F
:10101000401C61411C460A250026551BB441F1D2F3
:1010200070BD0000F8B51F46044601230068DB02CE
:10103000032601461840072A05DB002801D017A522
:1010400006E017A504E0002801D016A500E016A5CB
:10105000102081432160A069C01E002FA06101D033
:10106000401EA0612046C046C046002F09D0384629
:101070006268A1689047206A401C2062C01C206200
:1010800006E0206AFAE762682878A1686D1C90473C
:10109000761EF8D22046C046C046F8BD4E414E00EE
:1010A0006E616E00494E4600696E6600F7B51646E1
:1010B0008AB0334878446C4603467C33C06F5A6824
:1010C0009B680DC42E487844763003AC0DC80DC41F
:1010D0003720C001081837211B30FFF7C5FB054634
:1010E0000C46803D1B3C02D56442012000E00020FC
:1010F0000027099010E0E0070CD00C20204978432D
:10110000794432464C3941186846012300F054FABC
:101110006B4607C364107F1C002CECD1184F7F4432
:101120002E3F16E0E80712D02001C0190EC8069124
:10113000089307920068F04201D19819089032464E
:10114000012306A903A800F037FA03AB07C36D100B
:10115000641C002DE6D10998002806D03246694665
:10116000012303A800F07EFA05E001233246694618
:1011700003A800F021FA0A9B07C30DB0F0BD0000E0
:10118000BC840000034640000A4610B5400D0BD059
:101190000121C9070F24A40200191C03640821437C
:1011A000540D2143D20207E000210120F2E7D40FC1
:1011B000490021435200401E0029F8DADB0FDB070B
:1011C000184310BDFFB50D46144685B048685168F8
:1011D00006F048FF00910190A868A16806F042FF60
:1011E00002910390A868616806F03CFF029A121809
:1011F0008242029201D2012000E00020019A0B18E5
:10120000D2180028019202D08A4202D903E08A4211
:1012100001D2012000E000200099081800906868C1
:10122000A16806F01FFF029A12188242029201D2B0
:10123000012000E00020019A0B18D218002801922A
:1012400002D08A4202D903E08A4201D2012000E0A2
:101250000020009908180090286821684000490083
:10126000400849084018FA49471814E0019940001D
:10127000C90F08430090019802994000C90F084324
:101280000190029803994000C90F08430290039807
:1012900040007F1E039000980028E7DA0898002895
:1012A00001D0EC4E00E00026B74201DA012000E058
:1012B0000020002804902AD0F71BF806C00E15D095
:1012C000029B2021091A039A8B401A430392029A27
:1012D000019BC2408B401A430292019A009BC2407C
:1012E0008B4000991A430192C14000917B110DD0AF
:1012F0006F460320C11A03D500218200B95003E0D4
:101300008A008100BA587A50401EF3D537460398B8
:101310000299002800D0012001430898029100287A
:1013200008460CD0002800D001200199019A4905F7
:1013300008430121D20AC902D202019200E0012130
:101340000E9B0122D207012B02D0002B03D013E009
:10135000002807D120E0904204D890420CD1019B94
:101360000B4209D0019B5918019105D10099491CE4
:10137000009101D17F1C009200280DD01021084659
:101380000020C0460498002806D00F98002803D0FB
:10139000082108460020C04628682168019B009A61
:1013A0004840C10F0598C90739430EC009B0F0BDC8
:1013B000FFB587B0099A0898089953689268406801
:1013C000896896460022039317469446089A126845
:1013D0005300099A5B081268520052089A1A9E4BF1
:1013E000D4180A9A002A01D0352200E04022069241
:1013F0000022012315460492DB07059324E0002D0B
:1014000005D175460346039E4D1BB34109D375466E
:101410006646039B491B049D9841059B7519AC4684
:101420005F4163463B4308D0059B049EDD07760879
:101430002E435B080496059301E0521E641EC50FFF
:10144000ED0749184041521C069B9A42D7DB002DFC
:1014500004D17546039A6B1A824101D203200CE035
:10146000039A0B466B404240134303D0014303D021
:10147000012002E0022000E00020614601910021ED
:10148000009702910A99002905D061464002014364
:10149000704B019102E08007002302909C4201DA28
:1014A000012000E0002007003AD01A1BD006C00E31
:1014B00015D0029D2021019C091AC5408C4025436E
:1014C000029C8C4000D001242543019C0295009D84
:1014D000C4408D4000992C430194C14000915411A7
:1014E0001DD06D460221002202290CD10320001BD1
:1014F00007E0002804DB8600AE59002E00D0012250
:10150000401C0328F5DB081B02D588002A5004E0A4
:101510008000285810438A00A850491EE3D51C4675
:101520000A98002802980CD0002800D001200199C8
:10153000019A490508430121D20AC902D202019247
:1015400000E00121109B0122D207012B02D0002BC9
:1015500003D013E0002807D11FE0904204D8904246
:101560000CD1019B0B4209D0019B5918019105D167
:101570000099491C009101D1641C009200280CD0F4
:10158000102108460020C046002F06D011980028E0
:1015900003D0082108460020C04608980999019AFE
:1015A000009B006809684840C10F0798C90721439C
:1015B00082600AC00BB0F0BD00B585B00193009207
:1015C0000A460146002302A8FFF7FCFD02A807C84F
:1015D00005B000BDFFB50A461F4685B007990193C7
:1015E00001230091014602A8FFF7ECFD0299039840
:1015F000049ECA0F4900D20700920F2249089202A6
:101600008C1A0021002800DB0C46450013486D08A9
:10161000844214D3079A002A04DA441E0026104D8F
:10162000F64302E004460D460E461021084600200F
:10163000C046002F03D0042108460020C0462005E4
:10164000E90A0843009908436905F20A1143ADE627
:1016500002C0FFFF013C0000FF3F0000FF07000049
:10166000FFFFFF7F00B585B0019300920A46014657
:10167000002302A8FFF79CFE02A807C8A8E7FFB551
:101680000A461F4685B00799019301230091014640
:1016900002A8FFF78DFE02990398049ECA0F490025
:1016A000D20700920F22490892028C1A00210028CA
:1016B00000DB0C46450011486D08844214D3079A9C
:1016C000002A04DA441E00260D4DF64302E00446CB
:1016D0000D460E46102108460020C046002F03D0BC
:1016E000042108460020C0462005E90A0843009965
:1016F00008436905F20A114358E60000FF0700009D
:10170000FFFFFF7F10B50446C046C0462046FEF7E7
:10171000D3FE10BD024670B50A4392072AD11E4D72
:10172000EE0104C808C9541B9443344017D0D0B20A
:10173000D9B2401A2106014310D190B299B2401A91
:10174000210401430AD110021902000A090A401AB1
:101750002102014302D1100E190E401A70BD9A42A7
:10176000DFD010BA19BA884201D9012070BD00201B
:10177000C04370BD02780B78401C491C002A09D078
:101780009A4207D102780B78401C491C002A01D0EC
:101790009A42EFD0D01A70BD010101010149182011
:1017A000ABBEFEE726000200704730B58C18027809
:1017B000401C13071B0F01D10378401C120906D1EE
:1017C0000278401C03E00578401C0D70491C5B1E2C
:1017D000F9D101E00B70491C521EFBD1A142E6D3A6
:1017E000002030BD10B50021034800F007F884B296
:1017F000204606F071FE10BD00B0034070B50546EE
:101800000C46022C00D205E0FF22F73204A10FA003
:1018100006F064FCA10028461030405870BD00005E
:101820002E2E5C636F6D706F6E656E74735C4D4BC6
:101830004C31365A345C647269766572735C6673D7
:101840006C5F61646331362E680000006368616E0E
:101850006E656C47726F7570203C204144435F5247
:101860005F434F554E54000070B52348FEF7D9FF33
:10187000441C21492046FEF7E5FF1F4A0A3AD07C66
:10188000927C0002104301461C48FEF7EDFF1C4904
:1018900008601948FEF7C5FF19490968491E8842C2
:1018A00004D9154916480068FEF7CCFF1248FEF728
:1018B000B8FF13490968081A0F4A0A3AD17C927C8A
:1018C00009021143484304460E49FEF7C3FF0A4983
:1018D0000A394872FA210A480068FEF7BBFF04463D
:1018E0000548FEF79EFF05462146FEF7B3FF012996
:1018F00001D105F01BFD70BD6701002080C3C90147
:1019000044F8FF1FE093040010B50348427A03A196
:10191000002005F02DFB10BD5D01002042617474B4
:10192000657279203A2025640D0A000000200149E3
:101930000870704738F8FF1F0148007870470000B2
:1019400038F8FF1F70B504460D462946204600F0C2
:1019500079F970BDF0B599B0074600BF64216846BB
:10196000FEF75DFF00266C467E202070022060702E
:10197000251D08220C49284604F00AF905460836B8
:10198000A670300AE070B11D204604F027F92870D7
:101990006D1C7E2028706D1C281B81B2204600F033
:1019A00051F919B0F0BD00005D010020F0B59DB007
:1019B000074600BF642104A8FEF731FF0020019014
:1019C00002900390002604AC7E20207004206070FA
:1019D000251D3548C17D827D0802104301126846ED
:1019E00001713148C17D827D08021043C1B2684651
:1019F0004171022201A9284604F0CAF80546B61C26
:101A0000C021684601712849487D097D00020843CC
:101A10000112684641712449487D097D000208434E
:101A2000C1B2684681712048807E1F49497EC90045
:101A300008431D49097E89010843C1B26846C17146
:101A40001948C17E6846017217481430007B164958
:101A5000C97F890008431449897FC9000843124996
:101A6000497F890108431049097FC9010843C1B270
:101A700068464172062201A9284604F089F8054605
:101A8000B61DA670300AE070B11D204604F0A6F81D
:101A900028706D1C7E2028706D1C281B81B220468A
:101AA00000F0D0F81DB0F0BD5D010020F0B59BB096
:101AB00000BF642102A8FEF7B2FE002402AD7E2022
:101AC0002870472068702E1D2148FEF7AAFE0746A1
:101AD000694601F059FB02226946304604F058F885
:101AE0000646A41C0122A91F304604F051F8064600
:101AF000641C0122691F304604F04AF80646641C43
:101B0000012201A9304604F043F80646641C012274
:101B1000E91E304604F03CF80646641C0122A91E6A
:101B2000304604F035F80646641CAC70200AE870B4
:101B3000A11D284604F052F83070761C7E203070CB
:101B4000761C701B81B2284600F07CF81BB0F0BDFB
:101B50006B010020F0B59DB0074600BF642104A8CA
:101B6000FEF75DFE0020019002900390002604AC79
:101B70007E20207006206070251D032201A92846C2
:101B800004F006F80546F61C02221049284603F028
:101B9000FFFF0546B61C042201A9284603F0F8FF02
:101BA0000546361DA670300AE070B11D204604F0CF
:101BB00015F828706D1C7E2028706D1C281B81B2C2
:101BC000204600F03FF81DB0F0BD00006F0100207E
:101BD000F0B59DB0074600BF642104A8FEF71FFEC4
:101BE0000020019002900390002604AC7E2020701B
:101BF00008206070251D032201A9284603F0C8FFB4
:101C00000546F61C012201A9284603F0C1FF05463E
:101C1000761CA670300AE070B11D204603F0DEFF8E
:101C200028706D1C7E2028706D1C281B81B22046F8
:101C300000F008F81DB0F0BD01B50121684606F0BE
:101C400071FC08BD70B504460D462A46214604487D
:101C5000FEF786FD2A460249022001F08DFD70BD87
:101C600058FFFF1F70B504460D46607A8006800E4F
:101C7000607229462046FFF7E5FF60792179090265
:101C8000401881B221488175090AC175207AE1792D
:101C90000902401881B21D480175090A4175607A30
:101CA0004107490F19488176607A8006410F17482D
:101CB0004176607A801115490876A17A1348C17679
:101CC000E07A8107890F114814300173E07A4007E8
:101CD000C10F0E48C177E07A8006410F0B4881772B
:101CE000E07A4006C10F09484177E07AC011074900
:101CF000087705F01BFB022000F058FA022000F0E4
:101D000005FA0021022000F0A7FA70BD5D01002055
:101D1000012001490870704738F8FF1F7CB5044660
:101D20000E46218868460180A1798170E179C170F1
:101D3000217A0171617A4171A17A817101F0CEF944
:101D400005460349FEF77EFD05F0F0FA7CBD000074
:101D50006B01002070B504460D4629462046FFF76A
:101D600071FFE0790249FEF76DFDFFF77DFD70BD63
:101D70006701002070B504460D4629462046FFF74E
:101D800061FF0822211D0348FEF7EAFC05F0CEFAA8
:101D900070BD00005D01002070B504460D46294667
:101DA0002046FFF74FFFE079217A090208430349F3
:101DB0008874000AC87405F0B9FA70BD5D0100208E
:101DC00070B504460D4629462046FFF73BFF70BD1F
:101DD00070B504460D4629462046FFF733FF70BD17
:101DE00070B504460D4629462046FFF72BFF70BD0F
:101DF00010B50120044908700020886004F05EFCE2
:101E00000149486010BD000098FAFF1F10B504F0AA
:101E100055FC08498860084680684968401A06D021
:101E200004480078022802D00320024908700148C3
:101E3000007810BD98FAFF1F70B504460D4629467C
:101E4000204606F0B7FC70BD70B505460E4600246E
:101E50002C466078082862D007DC030006F01AF9E7
:101E600008433C1F8B2A354D588B472875D006DC1C
:101E700009285DD00A2860D046287CD138E049285E
:101E800060D0502802D0882875D16FE0E078A27821
:101E9000000210430146201D06F051F96CE0FFF7E7
:101EA00037FFE078A278000210430146201DFFF7BB
:101EB00051FD61E0FFF72CFFE078A27800021043AB
:101EC0000146201DFFF772FD56E0FFF721FF314666
:101ED0002846FFF7C7FE4FE0FFF728FD31462846AA
:101EE000FFF776FF48E031462846FFF779FF43E0E9
:101EF00031462846FFF726FD3EE0FFF709FFE07870
:101F0000A278000210430146201DFFF723FE33E0B4
:101F1000FFF7FEFE31462846FFF73EFF2CE0E07853
:101F2000A278000210430146201DFFF751FE23E076
:101F300031462846FFF744FF1EE031462846FFF7AA
:101F400009FF19E0E078A278000210430146201D45
:101F5000FFF7E4FE10E000E00DE0E078A278000278
:101F600010430146201DFFF7A1FD05E0314628463C
:101F7000FFF700FF00E000BF00BF70BD0EB50E49C7
:101F800003C9029101900C4808300068009002F0EB
:101F90007BF9002002F0D0F800231A4619460320EE
:101FA00002F006F86946002002F0D8F802F032F993
:101FB00001A802F041F90EBD2495000010B50024DF
:101FC00006F048F9002803DD06F00CF9044600E0AD
:101FD0000124230006F05EF806580426373E4B58CD
:101FE0002BA1002004F0C4FFFFF7A6FC012805D1B7
:101FF0007D21C900022000F0CDF812E006F0BAF809
:10200000012806D1022006F00BF9022000F0B8F8F2
:1020100007E0042006F004F97D21C900022000F049
:10202000B9F832E020A1002004F0A2FF06F01CF96C
:10203000032006F0F5F87D21C900022000F0AAF87F
:10204000FFF7D6FE21E006F09BF91DA1002004F069
:102050008FFF1AE020A1002004F08AFF06F0FCF9AF
:10206000052006F0DDF8022000F08AF80DE021A13D
:10207000002004F07DFF06F0F3F8012006F0D0F810
:10208000022000F07DF800E000BF00BF10BD00009E
:102090004170705472616E736665725F4368656308
:1020A0006B54696D650D0A004170705472616E73F6
:1020B0006665725F53656E645265710D0A000000BB
:1020C0004150505472616E736665725F53656E6401
:1020D000526573700D0A00004170705472616E7326
:1020E0006665725F5365724E65787454696D650DEF
:1020F0000A0000004170705472616E736665725F11
:102100004C6F77506F7765720D0A000010B504466A
:1021100021460248007804F01BFB10BDC7F9FF1FE1
:1021200010B50446044804707D22D20002210078D4
:1021300004F072FB10BD0000C7F9FF1F70B5054623
:102140000C46E007C00F002809D00B4A01210B48BC
:10215000007804F061FB20460121484070BD022058
:102160002040002805D0FFF729FF204602214840E3
:10217000F4E70020F2E7000088130000C7F9FF1F12
:1021800010B5044621460248007804F0FBFA10BD61
:10219000C7F9FF1F70B504460D462A46214602487E
:1021A000007804F039FB70BDC7F9FF1F10B5044675
:1021B00021460248007804F03FFB10BDC7F9FF1F1D
:1021C00038B501F0ABFD0446224619A1002004F009
:1021D000CFFE02F059F81A4802F02EF82021684686
:1021E00001700021417081706946002001F0B6FF46
:1021F000012001F0A1FF2A21124804F0FBFF04F0A6
:10220000E5FF104805F002F804F0D0FF01F086FD6C
:102210000446224606A1002004F0AAFE094804F064
:10222000EBFFFFF7ABFE08A1002004F0A1FE38BDD4
:102230006D63675F6D6F6465203A2025640D0A0049
:102240001495000000E00740424F4152445F57613F
:102250006B6555700D0A000070B504460D461048B8
:102260000178001D4454001F0078401C0C49087080
:1022700008468078401C88700A46D1781078FEF7AE
:10228000F3FAC8B206490870002D04D00A210420D0
:1022900004F0FEF902E0042004F0F0F970BD000043
:1022A0008EF9FF1F70B505460C4615490978652261
:1022B0005143134A121D881822462946FEF750FA48
:1022C0000F480078652148430D49091D40186030CA
:1022D0000471081F0078401C091F087008468078A8
:1022E000401C88700A46D1781078FEF7BDFAC8B253
:1022F0000349087000210820FFF7AEFF70BD000001
:1023000050F8FF1F10B500F0FBF901F05BFA002058
:102310000649087088704870022004F03DF90420D6
:1023200004F03AF9082004F037F910BD8EF9FF1FC8
:1023300070B50024002504214D4803F0D3FB01288B
:1023400003D100204B4908701AE04A480078FA2867
:1023500010DD00204749087047A104F009FE042061
:1023600004F01AF9042004F09FF906F09FF9022006
:1023700004F084F93F480078401C3E49087070BD65
:1023800000F0E6F80446230005F084FE0A06070C78
:102390001F396D446D5B6A6D66E03BA1002004F05F
:1023A000E7FD61E03CA1002004F0E2FD4B21C90102
:1023B000002001F0B5F906F081F914210320FFF7A0
:1023C0004BFF04F085F905464EE0394800780028B7
:1023D0000ED104F07DF9401B642804D900210220AD
:1023E000FFF73AFF0AE014210320FFF735FF05E06D
:1023F00000202F4908702FA104F0BAFD34E033A16A
:10240000002004F0B5FD06F0E5FA14210320FFF7E3
:1024100023FF29E033A1002004F0AAFD012000F0F1
:1024200029FAE1214902002001F07AF90220FFF7A0
:10243000A7FE7D23DB0032220321002000F08CFB6D
:1024400012E02DA1002004F093FD6423322202212A
:10245000002000F081FB14210920FFF7FDFE03E0BE
:1024600006F06CFA00E000BF00BF00BF87E7000085
:1024700000F00F409DF9FF1F4155585F74696D656D
:102480006F75740D0A0000004533325F434D445FA1
:10249000524553540D0A00004533325F434D445FAB
:1024A000474554434F4E465F5265710D0A00000088
:1024B0009CF9FF1F4533325F434D445F474554430A
:1024C0004F4E465F526573700D0A00004533325F10
:1024D000434D445F534554434F4E465F5265710D23
:1024E0000A0000004533325F434D445F434F4E4680
:1024F0005F4F4B0D0A0000004533325F434D445F90
:1025000053454E440D0A0000014800787047000012
:102510008DF9FF1F10B500F0F3F806F0DDF8052087
:1025200001F0DCF800F0F6F8012001F0D7F804A182
:10253000002004F01DFD00210220FFF78DFE10BDDC
:102540004253505F4533325F496E69740D0A000093
:1025500010B500240D488078002814DD0B48417820
:10256000001D445C001F4078401C08494870084624
:102570008078401E88700A46D1785078FEF774F94A
:10258000C8B202494870204610BD00008EF9FF1FF6
:10259000F0B587B0044600BF00BF00BF00BF00BF5A
:1025A00000BF00BF00BF00BF00BF60780002A1787D
:1025B000401885B2E078C02108408611E0783821C3
:1025C0000840C710E0784007400F0690207905903A
:1025D000607980210840C011029060794021084054
:1025E00080110190607938210840C0100090607916
:1025F000042108408010049060798007800F0390C8
:102600002849487D097D00020843A8422BD125486E
:10261000007EB04227D12348407EB84223D12148D2
:10262000817E069881421ED11E48C17E0598814256
:1026300019D11C48017F0298814214D11948417F69
:10264000019881420FD11748817F009881420AD1B9
:102650001448C17F0498814205D112481430017B8F
:102660000398814208D010A1002004F081FC0021D1
:102670000420FFF7F1FD03E000210620FFF7ECFD49
:102680002A4610A1002004F073FC0649487D097D0C
:1026900000020843024610A1002004F069FC07B0C4
:1026A000F0BD00005D0100204533322068617320D9
:1026B000536F6D6520646966666572656E740D0A98
:1026C000000000004C6F63616C416464723A253015
:1026D00034580D0A00000000675F4C6F63616C4165
:1026E0006464723A253034580D0A000010B501F0C8
:1026F00095F800F00FF8042003F0C0FF10BD0000B3
:1027000010B501221321024803F0FCF910BD0000AE
:1027100000F10F4010B500221321024803F0F2F936
:1027200010BD000000F10F4030B599B000202349E2
:1027300008702348027923A1002004F019FC27A186
:10274000002004F015FC002408E01D486038025DFC
:1027500025A1002004F00CFC601CC4B218480079CC
:10276000A042F2DC22A1002004F002FC0025144863
:1027700005790279014660396846FDF7F1FF0021CD
:102780000F480171FFF7C0FE042807D10120194945
:10279000087029466846FFF7FBFE0DE0FFF7B4FE20
:1027A000012809D129466846FFF746FB96230A22ED
:1027B0000321002000F0D0F919B030BD8CF9FF1FC3
:1027C000580100204253505F4533325F52657620F6
:1027D0006C656E3A25640D0A0000000056616C7548
:1027E000653A0D0A00000000202558200000000076
:1027F0000D0A00009CF9FF1F10B504460C48017932
:102800000079401CC2B20A48027160384454084939
:1028100008796421FEF71EF8054801710548007823
:10282000002803D10A21082003F032FF10BD000068
:10283000580100208CF9FF1FFFB581B00E461746E6
:102840001D460B4C694608790002497908432070FF
:10285000000A6070A6702A463946E01CFDF780FF2A
:10286000E81C81B22046FFF71DFD05B0F0BD000059
:102870009400002010B50446012C06D0022C17D07D
:10288000032C28D0042C4CD138E027A1002004F0E0
:102890006FFB002211462A4803F034F9002206217A
:1028A0002748403803F02EF901202649087039E006
:1028B00025A1002004F05CFB01220021204803F048
:1028C00021F9002206211E48403803F01BF902209E
:1028D0001C49087026E022A1002004F049FB0022D8
:1028E0001146174803F00EF901220621144840381A
:1028F00003F008F903201349087013E01FA100201A
:1029000004F036FB012200210D4803F0FBF8012200
:1029100006210B48403803F0F5F8042009490870F7
:1029200000E000BF00BF10BD45333220456E746526
:1029300072204E6F726D616C204D6F64650D0A00E0
:1029400000F10F408DF9FF1F45333220456E74654D
:10295000722057616B657570204D6F64650D0A00BC
:1029600045333220456E746572204C6F77706F77F7
:102970006572204D6F64650D0A00000045333220FA
:10298000456E74657220536C656570204D6F64658B
:102990000D0A000070B504460D462A462146002067
:1029A00000F0EAFE70BD00000EB50020029001901C
:1029B0000090144802F084FF02AA0421114802F09A
:1029C0004BFF01AA01210F4802F046FF6A46002191
:1029D0000C4802F041FF0CA1002004F0C9FA11A13B
:1029E000002004F0C5FA0198820A034613A10020D2
:1029F00004F0BEFA0098820A03461DA1002004F0EC
:102A0000B7FA0EBD600000200D0A2050466C6173BD
:102A100068204578616D706C652053746172742014
:102A20000D0A00000D0A2050466C61736820496E43
:102A3000666F726D6174696F6E3A20000D0A2054E2
:102A40006F74616C2050726F6772616D20466C61AB
:102A500073682053697A653A092564204B422C201B
:102A60004865783A202830782578290D0A0000003A
:102A70000D0A2050726F6772616D20466C61736839
:102A800020536563746F722053697A653A0925642F
:102A9000204B422C204865783A2028307825782928
:102AA000200D0A0010B50346002000BF03E01C5CA7
:102AB0000C54441CA0B29042F9DB10BD70B5FFB0BD
:102AC000FFB082B004460D461646012189026846D1
:102AD000FDF7A5FE0122920269462046FFF7E2FFBC
:102AE000324629466846FDF73BFE72B6094B012285
:102AF00092022146084802F057FE01239B026A46D3
:102B00002146054802F054FF62B600207FB07FB036
:102B100002B070BD6B66656B60000020014600204E
:102B2000002902D001290FD108E000BF0022084B84
:102B3000DA601A46D26892B2104606E000BF054A33
:102B4000526892B2104600E000BF00BF704700001C
:102B50000000044000800340FFB581B00D461646DA
:102B60001F46002E25D0002F23D0019800011249C6
:102B700044182078022801DA207820730020207081
:102B8000A780A6706570002D03D12078042108432A
:102B9000207003F09DFDA060207802210843207082
:102BA0000648007803F048FE02210448007803F04C
:102BB000E9FD05B0F0BD0000BCFFFF1FC4F9FF1F19
:102BC00070B5044618236343084D5B195A7D1823DA
:102BD00063435B19D968182363435B19986802F053
:102BE00087FF00202101024A505470BDC4940000A8
:102BF000BCFFFF1F70B5002400BF46E018216143F1
:102C0000234A5058020C234BD1180A6801238340F1
:102C10001A430A6000BF182363431D4D5B195868AF
:102C2000182363435B19D968182363435B191A7C23
:102C30008B00C35807252D02AB4315020726360229
:102C400035402B438D00435100BF18236343104D83
:102C50005B191A461132182363435B19D96818238C
:102C600063435B19986802F0FBFE182363435B190A
:102C70005A7D182363435B19D968182363435B1992
:102C8000986802F035FF601CC4B2012CB6DB70BD41
:102C9000C49400000070044070B5044618236343D8
:102CA000084D5B191A7D182363435B19D9681823F3
:102CB00063435B19986802F01BFF01202101024A5F
:102CC000505470BDC4940000BCFFFF1F10B50446F3
:102CD00020010749085CC007C00F002803D0204628
:102CE000FFF76EFF02E02046FFF7D6FF10BD0000A1
:102CF000BCFFFF1FFEB50025A4E02801574944187A
:102D0000207802210840002878D003F0E1FC064634
:102D1000A168B14273D82078C007C00F002821D025
:102D2000A0786421081AC0B20190207840084000C1
:102D30002070182068434A4BC018427D1820684311
:102D4000C018C16818206843C0188068009002F05D
:102D5000CFFE207804210840002826D16078401E4C
:102D6000607022E06078002809D1207804210840B2
:102D7000002804D1207802214840207015E0A07876
:102D80000190207801210843207018206843344BBB
:102D9000C018027D18206843C018C1681820684315
:102DA000C0188068009002F0A3FE2078022108403D
:102DB00000280CD0A188019A514308466421FDF7F0
:102DC00049FD80B2029002983018A0602FE00020E8
:102DD0000290207B002813D018216943204BC9188A
:102DE0000A7D18216943C918C968009118216943EF
:102DF000C9188868009902F07BFE11E020E012E01B
:102E000018206843164BC018427D18206843C0182C
:102E1000C16818206843C0188068009002F068FEFE
:102E20000020207303E02089801B80B20290002FD5
:102E300005D00298002803D00298B84200DA029F19
:102E4000681CC5B2012D00DA57E7002F05D03A46BD
:102E500002210448007803F0DFFCFEBDBCFFFF1F29
:102E6000C4940000C4F9FF1FF8B51E48007A012879
:102E700004D0022806D0032831D12FE002201949BE
:102E800008722DE003201749087208460068486060
:102E90000020086014494A780B7811060914194378
:102EA0000846FDF7D3FD0646104906F0BDF9044675
:102EB0000C494868FDF7D2FD07467B21C90506F09D
:102EC000B3F906460A4906F007FA0546214606F018
:102ED00065F90449C8600420487201E000E000BFC1
:102EE00000BFF8BDA0F9FF1F7E010020CDCCCC3D76
:102EF000000048420148407A70470000A0F9FF1FD7
:102F00000520024948720846C0687047A0F9FF1FB3
:102F100008B5002201211E4802F0FEFD1F207F217E
:102F2000C943884200D108E000BFC206D20E012189
:102F30009140184A116000BF00BF002207211648C7
:102F400003F0D6FC01220721134803F0FBFC00210B
:102F500068464170012101706A4607210C484038DB
:102F600002F07EFD012211460C4803F0EBFC00212B
:102F700068464170012101706A46054802F070FD03
:102F8000074800F0C5FC0648401C00F0C1FC08BD25
:102F900000F10F4080E100E000C0044000D0044098
:102FA0000C00381008B5194800F0E2FC1748401C26
:102FB00000F0DEFC01220721154803F0C3FC0021CC
:102FC0006846417001706A460721124802F048FDC8
:102FD00001221146104803F0B5FC002168464170FB
:102FE000012101706A460B48403002F039FD092288
:102FF0000721074803F07CFC1F2002F0C3FB0122DD
:1030000011460448403002F087FD08BD0C0038101E
:1030100000C00440C0F00F4000D0044030B58FB075
:10302000FFF768FF042817D1342102A8FDF7F7FB4A
:103030000C49C868FDF7BCFC04460A4840682246B3
:103040000B4609A1009002A8FDF7A6FA02AA0DA15D
:10305000002003F08DFF03E00BA1002003F088FFA8
:103060000FB030BDA0F9FF1F4C4D5430313A2566EA
:103070002C50756C7365436F756E743A25640D0A38
:1030800000000000257300004C4D54303120566183
:103090006C7565206973204E6F55700D0A00000035
:1030A00010B50AA1002003F063FFFFF731FFFFF71F
:1030B00029F900F0B1FAFFF783F800F0BFFAFFF743
:1030C00071FFFFF713FB00F0B9FA10BD454E5445F0
:1030D0005220564C50530D0A0000000030B587B006
:1030E0000446002C00D004E0E6221CA120A004F03D
:1030F000F5FF1C2221496846FDF7E4F920882049A4
:10310000401AFF216E31484305462088C117890FB8
:1031100009188910FF39ED394D19A078400069462A
:10312000085A4519E078401E451920788007800F1D
:10313000002803D1A078022800D86D1E11486843EA
:103140002179E12212015143411860793C22504318
:103150000818A1794518284607B030BD2E2E5C62AC
:1031600073705C6273705F7274632E6300000000A2
:103170006461746574696D6500000000DC94000092
:10318000B207000080510100F3B585B00C46002C59
:1031900000D004E09F222EA132A004F09FFF34A0B3
:1031A00001460EC9C0686D460EC50390059804908F
:1031B00033490498FDF74EFB461C31490498FDF74E
:1031C00049FB0491E12109010498FDF743FB2071BB
:1031D000E12109010498FDF73DFB04913C2104988D
:1031E000FDF738FB60713C210498FDF733FBA171BA
:1031F000FF276E37234820800DE0F61B2088401CF7
:10320000208020788007800F002802D0FF276E37AB
:1032100001E0FF276F37BE42EFD820788007800F8C
:10322000002802D11D2069468870012509E0684602
:10323000405DB04201D3A57005E06846405D361A96
:103240006D1C0C2DF3D900BFE67007B0F0BD000077
:103250002E2E5C6273705C6273705F7274632E6397
:10326000000000006461746574696D650000000011
:10327000001F1C1F1E1F1E1F1F1E1F1E1F000000E1
:1032800080510100B207000001480068704700004B
:1032900000D0034010B504462146024803F0D2FC9A
:1032A00010BD000000D0034030B587B0002004906E
:1032B00005900690029003902F4800F041FB2F48A4
:1032C00001210A468B00C35807242402A343140299
:1032D00007252D022C4023438C00035100BF002101
:1032E0006846017101AA0121254802F0B9FB254871
:1032F00000F026FB0220244909680322920491432E
:10330000820403239B041A4011431F4A116000BF2B
:1033100004A803F0C5FC04A91C4803F019FD012111
:1033200089021A4A10690F239B0202469A431046EB
:1033300002460A431046154A106100BF1449684608
:103340000181012181720221C172032101730421D3
:1033500041730521817302A9104603F065FD042124
:103360000A4803F06BFC142002F0FAF9074803F056
:103370008FFD07B030BD00000B00381000B00440D6
:1033800080F00F401D003C100070044000D003404E
:10339000E40700000021044A1168884200D2704707
:1033A000014A906000BFFAE700D0034010B5044620
:1033B000054803F072FD2146034803F035FD02483D
:1033C00003F066FD10BD000000D003400148006816
:1033D000704700004CF8FF1F02480068401C01497C
:1033E000086070474CF8FF1F10B5002000F0ECFBA0
:1033F000044622462FA1002003F0BAFD012000F070
:10340000E3FB0446224631A1002003F0B1FD022077
:1034100000F0DAFB0446224631A1002003F0A8FDAB
:10342000042000F0D1FB0446224632A1002003F024
:103430009FFD052000F0C8FB0446224633A1002072
:1034400003F096FD082000F0BFFB0446224636A19B
:10345000002003F08DFD092000F0B6FB0446224653
:1034600038A1002003F084FD0A2000F0ADFB0446E3
:1034700022463CA1002003F07BFD0B2000F0A4FBC2
:10348000044622463DA1002003F072FD0D2000F00D
:103490009BFB044622463FA1002003F069FD072064
:1034A00000F092FB044622463FA1002003F060FD9D
:1034B00010BD00006B434C4F434B5F436F7265532D
:1034C0007973436C6B3A25640D0A00006B434C4FD3
:1034D000434B5F506C6174436C6B3A25640D0A007A
:1034E0006B434C4F434B5F427573436C6B3A25649F
:1034F0000D0A00006B434C4F434B5F466C61736891
:10350000436C6B3A25640D0A000000006B434C4F7E
:10351000434B5F506C6C466C6C53656C436C6B3A00
:1035200025640D0A000000006B434C4F434B5F4D78
:103530006367466978656446726571436C6B3A25CA
:10354000640D0A006B434C4F434B5F4D6367496EFC
:103550007465726E616C526566436C6B3A25640DDE
:103560000A0000006B434C4F434B5F4D6367466C52
:103570006C436C6B3A25640D0A0000006B434C4FA2
:10358000434B5F4D6367506C6C30436C6B3A256402
:103590000D0A00006B434C4F434B5F4C706F436C04
:1035A0006B3A25640D0A00006B434C4F434B5F4F51
:1035B0007363304572436C6B3A25640D0A0000005A
:1035C00000B587B000200590069005A90A4803F0D1
:1035D00039FB6846817E427E037EC07D0193029264
:1035E000039100906846837D828A04A1002003F045
:1035F000BFFC07B000BD000000D003402564202EB2
:10360000202564202E202564202025643A25643A54
:1036100025640D0A000000000548064908614817A6
:10362000C206D20E01219140034A116000BF7047CB
:103630000600010000E000E080E100E070B500203D
:1036400000F0C2FA05467D21C900FDF703F90446E2
:10365000601E0949884200D90CE0601E0749486194
:103660000321081F02F05CFF002004498861072045
:10367000086100BF70BD0000FFFFFF0000E000E038
:1036800010B500F001FE0F4800F052FC0D4908682B
:103690000D49086000BF0D49087900F02BF90B4A6D
:1036A000D21D0021084600F0E3F8084BDA7899783B
:1036B000587800F0EBFC064800F0BEFD05480649CE
:1036C000086010BD0C9500000CF8FF1FF894000076
:1036D00004950000006CDC0200F8FF1F00B50146F5
:1036E0000022FFF773FE024600BFFFF76FFE801A4D
:1036F0008842FAD300BD10B50446002C04D0012C3A
:1037000005D0022C09D105E005F004FA06E005F029
:103710006BFA03E005F0CAFA00E000BF00BF10BD7D
:1037200070B504460D46002C04D0012C18D0022C94
:103730001CD118E0002000F047FA06463246294620
:103740000C4802F049FC01210A4802F0B7FA0121B5
:103750004903084802F0A2FA0C2001F0F5FF06E048
:1037600005F042FA03E005F0A1FA00E000BF00BF57
:1037700070BD000000A006407CB504460E4615460C
:1037800000960195002C04D0012C08D0022C0DD1FC
:1037900006E06A460749084802F0AEFD07E006E089
:1037A0006A460649064804F005F900E000BF00BF7C
:1037B0007CBD0000ECFFFF1F00A006402C00002095
:1037C00000C0064008B5114802F04CFA012202215F
:1037D0000F4803F09BF800216846417001706A466B
:1037E00002210C4802F03CF901221146084803F07E
:1037F0008DF800216846417001706A460121054834
:1038000002F02EF9044800F08FF808BD00A0064031
:103810000090044000F00F400900381010B500205F
:10382000FFF769FFE12149020020FFF779FF10BD92
:1038300010B504F023FA0446224606A1002003F046
:1038400097FBFFF731FDFFF7AFF80220FFF753FFBB
:1038500010BD000056657273696F6E3A25730D0ACC
:103860000000000010B5FFF70BFFFFF7BDFD10BD16
:1038700070B506460D461446002C00D004E00E4AF2
:103880000EA119A004F02AFC304600F08DFB214661
:10389000284600F063FC16480078C021884314498C
:1038A000087000BF124880790C2108408008032866
:1038B000F8D1002070BD0000F40500002E2E5C63DE
:1038C0006F6D706F6E656E74735C4D4B4C31365A14
:1038D000345C647269766572735C66736C5F636C8A
:1038E0006F636B2E63000000636F6E666967000094
:1038F000004006400549097838229143C200382328
:103900001A401143014A1170704700000040064000
:10391000020C044BD1180A68012383409A430A60C1
:103920007047000000700440020C044BD1180A6874
:10393000012383401A430A6070470000007004406E
:10394000020C044BD1180A68012383401A430A6011
:103950007047000000700440020C044BD1180A6844
:10396000012383401A430A6070470000007004403E
:10397000020C044BD1180A68012383401A430A60E1
:10398000704700000070044070B50446002C00D061
:1039900004E0124A12A11DA004F0A0FB00256078EB
:1039A000C006C00E05431B4805714079400940011F
:1039B000A178C906C90E084316494871084600791E
:1039C00021784022114308431249087100BF114871
:1039D0008079402108400028F9D070BDDF02000046
:1039E0002E2E5C636F6D706F6E656E74735C4D4BE5
:1039F0004C31365A345C647269766572735C6673F6
:103A00006C5F636C6F636B2E63000000636F6E66A8
:103A1000696700000040064010B5164800680321A1
:103A200089040840800C002804D002280CD0032808
:103A30001BD117E000F0AEF90121C903884200D183
:103A400000E00020044612E00B480068002800D087
:103A500005E0FF22693209A113A004F03FFB0648EC
:103A6000046804E07D24E40001E0002400BF00BFFE
:103A7000204610BD0070044010F8FF1F2E2E5C631E
:103A80006F6D706F6E656E74735C4D4B4C31365A52
:103A9000345C647269766572735C66736C5F636CC8
:103AA0006F636B2E63000000675F7874616C333264
:103AB000467265710000000010B500F073F804460E
:103AC000002C06D000F0B0F9C008A04201D3204677
:103AD00010BD0020FCE7000070B500F0F3F80546CB
:103AE000002D01D1284670BD1748007838210840C4
:103AF000C4082846E0400546134840783021084075
:103B00000609002E1DD0230004F0C4FA080506079C
:103B100008090A0C121800BF00BF00BF00BF00BF99
:103B20006D090DE014212846FCF794FE054607E0D8
:103B30000C212846FCF78EFE054601E0002500BF5B
:103B400000BF2846CFE700000040064070B513488C
:103B5000407802210840002805D1104880792021B2
:103B60000840002801D0002070BD00F01BF804467A
:103B7000002C01D12046F7E70848C07860210840B2
:103B800045090648C07880210840C609A8000449B4
:103B900040187100405A6043E6E7000000400640CC
:103BA000F893000010B506488079102108400009FC
:103BB000002802D1FFF790FF10BD02480068FBE724
:103BC0000040064004F8FF1F70B505462B0004F0C6
:103BD00061FA0E0809154C162D314835393D414C16
:103BE000454C00BF00F020F9064622484068000F0F
:103BF000411C3046FCF72EFE044638E000BF00F0C2
:103C000013F906461B484068000F411C3046FCF77C
:103C100021FE044617484068072212041040000C99
:103C2000411C2046FCF716FE044620E000F064F933
:103C300004461CE0FFF7F0FE044618E0FFF73CFFE7
:103C4000044614E000F018F8044610E0FFF77EFF89
:103C500004460CE000F008F9044608E07D24E40086
:103C600005E000F097F8044601E0002400BF00BF23
:103C7000204670BD4080044010B505480078022100
:103C80000840002800D110BD00F004F8FBE7000058
:103C90000040064008488079C007C00F002802D1C4
:103CA0000648006870470448007A0E210840410821
:103CB00003480068C840F5E70040064004F8FF1FCD
:103CC00008F8FF1F10B506480068002800D004E07F
:103CD000E12204A10EA004F001FA0148006810BD21
:103CE0000CF8FF1F2E2E5C636F6D706F6E656E7427
:103CF000735C4D4B4C31365A345C64726976657234
:103D0000735C66736C5F636C6F636B2E63000000A3
:103D1000675F7874616C30467265710070B5082019
:103D20001B4DAD790C263540AA08194DAD791026EA
:103D300035402B09164D6D78022635406908144D23
:103D4000AD79202635406C09002A06D0012A0AD018
:103D5000022A0ED0032A18D115E0002B01D103202E
:103D600000E0002012E0002901D0022000E0012044
:103D70000CE0002901D0052004E0012C01D106202F
:103D800000E0042002E0072000E000BF00BF70BD9B
:103D90000040064010B50B480078802108400028FC
:103DA0000DD009480068002800D005E0FF225532F8
:103DB00006A111A004F092F90348006810BD00208C
:103DC000FCE70000005006400CF8FF1F2E2E5C633D
:103DD0006F6D706F6E656E74735C4D4B4C31365AFF
:103DE000345C647269766572735C66736C5F636C75
:103DF0006F636B2E63000000675F7874616C304600
:103E0000726571000146064A914201D8002005E022
:103E1000044A914201D8012000E0022070470000CE
:103E20009798000000127A0010B50E4989790C228B
:103E300011408C08002C08D0012C09D0022C0AD08B
:103E4000032C0BD100F010F80AE0FFF77FFE07E02B
:103E5000FFF720FF04E0FFF735FF01E0002000BF7F
:103E600000BF10BD0040064010B5124880794021C7
:103E70000840002800D110BD00F03AF80446002C9C
:103E800000D005E08F2292000BA116A004F026F9C5
:103E900008480079C006C00E411C2046FCF7DAFC39
:103EA000044604484079C006C00E183044432046FA
:103EB000E1E70000004006402E2E5C636F6D706FDE
:103EC0006E656E74735C4D4B4C31365A345C647263
:103ED00069766572735C66736C5F636C6F636B2E7F
:103EE000630000006D6367706C6C30636C6B000086
:103EF00010B5FFF7E7FE10BD10B50C484068012172
:103F000009040840000C002802D0012809D103E070
:103F1000FFF71CFE044606E0FFF7A6FF0446640810
:103F200001E0002400BF00BF204610BD0080044017
:103F300070B504462068FFF765FF054618482279EA
:103F40000178090909010B4613431946017000BFA6
:103F500000BF0178A0230A469A431146A279114373
:103F6000017000BF0F4840783C218843290130226E
:103F700011400843617908430A4948706079002874
:103F80000CD00748007880210840002806D000BFE8
:103F900004488079022108400028F9D070BD000053
:103FA00000500640004006400146002070470000D7
:103FB000FFB581B006460F461C46002000903248EF
:103FC0004079402188433049487100BF2E488079AC
:103FD000202108400028F9D12B484078022188434D
:103FE000294948700846C5788079102108400009A1
:103FF000002807D0012000902348C07820214840A5
:104000002149C87020480078FC218843F1003822FB
:1040100011408022114308431B490870084640782C
:1040200004210840002806D000BF174880790221EB
:1040300008400028F9D000BF1348807910210840BB
:1040400000090028F8D10098002801D00E48C5705A
:10405000F80180210840039949016022114008437A
:10406000E022294691430843054600BF064880796F
:104070000C21084080080228F8D1002C00D0A0476D
:10408000002005B0F0BD000000400640F8B5034632
:10409000284880790C263040840826488079C50756
:1040A000ED0F2448007A0E2630404008009000981A
:1040B000824220D0012D14D1012C05D01D4800785A
:1040C0000226304000280CD01A48407840084000B2
:1040D000184E707000BF17488079C007C00F0028C5
:1040E000F9D11448007A2F26B04356000E273E40DF
:1040F0003043104E30720F48407840084000CE07E1
:10410000F60F30430B4E7070304600788008800008
:1041100018433070012C03D002201840002806D02C
:1041200000BF04488079C007C00F8842F9D1002041
:10413000F8BD000000400640002806D00649497836
:1041400002221143044A517005E0034949780222D2
:104150009143014A517070470040064070B50546D2
:104160000C46002C00D004E01B4A1CA126A003F042
:10417000B5FF274840780221884325494870084602
:104180000078C421884380302149087000BF20484E
:1041900080791C2108400828F9D11D484079402128
:1041A00088431B49487100BF194880792021084085
:1041B0000028F9D12046FFF7E7FB15484079402158
:1041C00008431349487100BF1148807920210840F5
:1041D0000028F9D0002070BD4B0500002E2E5C6336
:1041E0006F6D706F6E656E74735C4D4B4C31365AEB
:1041F000345C647269766572735C66736C5F636C61
:104200006F636B2E63000000636F6E66696700006A
:104210000040064007480078C021884305490870DF
:1042200000BF044880790C21084080080328F8D199
:10423000002070470040064010B5114A41685160A7
:1042400001780F4A403A526801231B049A430B0439
:104250000124240423401A43094B403B5A6000BF09
:104260004178084A126803239B049A438B04032471
:10427000A40423401A43034B1A6000BF10BD000082
:104280004080044000700440014802494860704783
:10429000000003104080044070B502460B460D48F4
:1042A000002113E0555C684000240BE0C507ED0FCA
:1042B000002D04D04510084E7540284600E04010FF
:1042C000651CACB2082CF1DB4D1CA9B29942E9DBAC
:1042D00070BD0000FFFF000001A0000010B5024902
:1042E000086800F011FD10BDD8F9FF1F10B54DA1F1
:1042F000002002F03DFE00214F4800F089FC000242
:10430000000A4E49884204D1024600214A4800F082
:1043100067FA0021484800F07BFC012109060840AB
:10432000884209D14649474803F04CFA0122120657
:104330000021414800F054FA00213F4800F068FC99
:10434000012149060840884204D1024600213A482A
:1043500000F046FA0021384800F05AFC0121890695
:104360000840884204D102460021334800F038FA60
:104370000021314800F04CFC012109070840884227
:1043800004D1024600212C4800F02AFA01212A48D3
:1043900000F03EFC0002000A2849884204D102468F
:1043A0000121254800F01CFA0121234800F030FCCF
:1043B000012109060840884209D12349234801F018
:1043C000A3FE0122120601211B4800F009FA012177
:1043D000194800F01DFC012149060840884204D11B
:1043E00002460121144800F0FBF90121124800F0B7
:1043F0000FFC012189060840884204D102460121B0
:104400000D4800F0EDF901210B4800F001FC0121FD
:1044100009070840884204D102460121064800F0FD
:10442000DFF910BD444D41305F49525148616E641F
:104430006C65720D0A00000000800040FFFFFF0065
:104440002C00002000C00640ECFFFF1F00A006402B
:1044500010B50249486800F057FC10BDD8F9FF1F9D
:1044600010B50249886800F04FFC10BDD8F9FF1F55
:1044700010B50249C86800F047FC10BDD8F9FF1F0D
:1044800070B505460C46042C00D204E0642204A159
:104490000EA003F023FE285D80210843285570BD3F
:1044A0002E2E5C636F6D706F6E656E74735C4D4B1A
:1044B0004C31365A345C647269766572735C66732B
:1044C0006C5F646D616D75782E6800006368616E65
:1044D0006E656C203C2046534C5F46454154555216
:1044E000455F444D414D55585F4D4F44554C455FD8
:1044F0004348414E4E454C0070B50546002406E049
:10450000A00009490858A84200D102E0641C002C10
:10451000F6D000BF002C00D104E04C2203A10EA075
:1045200003F0DCFD204670BD249400002E2E5C6359
:104530006F6D706F6E656E74735C4D4B4C31365A97
:10454000345C647269766572735C66736C5F646D0B
:10455000616D75782E630000696E7374616E6365BA
:10456000203C2041525241595F53495A4528735FBC
:10457000646D616D75784261736573290000000098
:1045800070B505462846FFF7B7FF800005490C586F
:10459000210C054A881801680122A24011430160DC
:1045A00000BF70BD289400000070044070B505463F
:1045B0000C461646042C00D204E0822205A110A06D
:1045C00003F08CFD285D80098001B106890E084347
:1045D000285570BD2E2E5C636F6D706F6E656E74A6
:1045E000735C4D4B4C31365A345C6472697665723B
:1045F000735C66736C5F646D616D75782E68000026
:104600006368616E6E656C203C2046534C5F464586
:1046100041545552455F444D414D55585F4D4F44AF
:10462000554C455F4348414E4E454C0010B504463D
:10463000002C00D005E0FF22153213A11CA003F0CE
:104640004DFD2068FF300130217909014018C06814
:104650000121890788432168FF3101312279120144
:104660008918C8602068FF3001302179090140189D
:1046700081680120000601432068FF300130227963
:1046800012018018816010BD2E2E5C636F6D706FFB
:104690006E656E74735C4D4B4C31365A345C64728B
:1046A00069766572735C66736C5F646D612E63001E
:1046B00068616E646C6520213D204E554C4C0000B5
:1046C00070B505460C461646042C00D205E0FF22C4
:1046D000DA320AA113A003F001FD002E0CD0210153
:1046E000E81DF930081880680121090608432201F5
:1046F000E91DF9315118886070BD00002E2E5C63F1
:104700006F6D706F6E656E74735C4D4B4C31365AC5
:10471000345C647269766572735C66736C5F646D39
:10472000612E68006368616E6E656C203C204653A4
:104730004C5F464541545552455F444D414D555897
:104740005F4D4F44554C455F4348414E4E454C00EC
:1047500070B505460C461646042C00D205E0FF2233
:10476000DA320AA113A003F0B9FC002E0CD021010B
:10477000E81DF93008188068012109060843220164
:10478000E91DF9315118886070BD00002E2E5C6360
:104790006F6D706F6E656E74735C4D4B4C31365A35
:1047A000345C647269766572735C66736C5F646DA9
:1047B000612E68006368616E6E656C203C20465314
:1047C0004C5F464541545552455F444D414D555807
:1047D0005F4D4F44554C455F4348414E4E454C005C
:1047E00070B505460C461646042C00D205E0FF22A3
:1047F000DA320AA113A003F071FC002E0CD02101C3
:10480000E81DF930081880680121090608432201D3
:10481000E91DF9315118886070BD00002E2E5C63CF
:104820006F6D706F6E656E74735C4D4B4C31365AA4
:10483000345C647269766572735C66736C5F646D18
:10484000612E68006368616E6E656C203C20465383
:104850004C5F464541545552455F444D414D555876
:104860005F4D4F44554C455F4348414E4E454C00CB
:10487000F7B504461546002C00D004E0A32218A189
:1048800021A003F02BFC042D00D204E0A42214A1EB
:1048900021A003F023FC002020606060A060E060A5
:1048A000019820602571019800F0EEF90646B000ED
:1048B0004719B80023490C50B100234A8918C8573A
:1048C0007F21C943884200D108E000BFC206D20E52
:1048D000012191401D4A116000BF00BFFEBD0000D4
:1048E0002E2E5C636F6D706F6E656E74735C4D4BD6
:1048F0004C31365A345C647269766572735C6673E7
:104900006C5F646D612E630068616E646C6520216C
:104910003D204E554C4C00006368616E6E656C2006
:104920003C2046534C5F464541545552455F444DEB
:10493000415F4D4F44554C455F4348414E4E454CB9
:1049400000000000D8F9FF1F2094000000E100E003
:1049500070B505460C46042C00D205E0FF227932E2
:1049600008A112A003F0BAFB2101E81DF9300818D4
:10497000C068410049082201E81DF9301018C160E3
:1049800070BD00002E2E5C636F6D706F6E656E746F
:10499000735C4D4B4C31365A345C64726976657287
:1049A000735C66736C5F646D612E68006368616E32
:1049B0006E656C203C2046534C5F46454154555231
:1049C000455F444D414D55585F4D4F44554C455FF3
:1049D0004348414E4E454C0070B505460C46042CEC
:1049E00000D205E0FF22793208A112A003F076FB85
:1049F0002101E81DF9300818C0684100490822016A
:104A0000E81DF9301018C16070BD00002E2E5C63E7
:104A10006F6D706F6E656E74735C4D4B4C31365AB2
:104A2000345C647269766572735C66736C5F646D26
:104A3000612E68006368616E6E656C203C20465391
:104A40004C5F464541545552455F444D414D555884
:104A50005F4D4F44554C455F4348414E4E454C00D9
:104A600070B505460C461646042C00D205E0FF2220
:104A70005F320BA114A003F031FB2101E81DF930D6
:104A80000818C0680121C9058843F1050122D20533
:104A9000114008432201E91DF9315118C86070BD69
:104AA0002E2E5C636F6D706F6E656E74735C4D4B14
:104AB0004C31365A345C647269766572735C667325
:104AC0006C5F646D612E68006368616E6E656C205A
:104AD0003C2046534C5F464541545552455F444D3A
:104AE000414D55585F4D4F44554C455F4348414EED
:104AF0004E454C0070B505460C461646042C00D2B7
:104B000005E0FF223D320BA114A003F0E7FA2101DA
:104B1000E81DF9300818C06801214907884371076A
:104B200001225207114008432201E91DF9315118B1
:104B3000C86070BD2E2E5C636F6D706F6E656E7495
:104B4000735C4D4B4C31365A345C647269766572D5
:104B5000735C66736C5F646D612E68006368616E80
:104B60006E656C203C2046534C5F4645415455527F
:104B7000455F444D414D55585F4D4F44554C455F41
:104B80004348414E4E454C0070B505460C46042C3A
:104B900000D205E0FF226C3208A112A003F09EFAB9
:104BA0002101E81DF9300818C0680121C907084330
:104BB0002201E91DF9315118C86070BD2E2E5C63C9
:104BC0006F6D706F6E656E74735C4D4B4C31365A01
:104BD000345C647269766572735C66736C5F646D75
:104BE000612E68006368616E6E656C203C204653E0
:104BF0004C5F464541545552455F444D414D5558D3
:104C00005F4D4F44554C455F4348414E4E454C0027
:104C100070B505460C46042C00D205E0FF22CB32CD
:104C200004A10EA003F05AFA2101E81DF93008187A
:104C3000806870BD2E2E5C636F6D706F6E656E74D4
:104C4000735C4D4B4C31365A345C647269766572D4
:104C5000735C66736C5F646D612E68006368616E7F
:104C60006E656C203C2046534C5F4645415455527E
:104C7000455F444D414D55585F4D4F44554C455F40
:104C80004348414E4E454C0070B50546002406E0B1
:104C9000A00009490858A84200D102E0641C002C79
:104CA000F6D000BF002C00D104E0522203A10DA0D9
:104CB00003F014FA204670BD189400002E2E5C6399
:104CC0006F6D706F6E656E74735C4D4B4C31365A00
:104CD000345C647269766572735C66736C5F646D74
:104CE000612E6300696E7374616E6365203C2041C0
:104CF000525241595F53495A4528735F646D61426E
:104D00006173657329000000F8B50446002C00D0DB
:104D100005E0FF221E3215A11EA003F0DFF9257960
:104D200001273F062668042D00D206E0FF22DA3272
:104D30001C490846283003F0D1F9002F0CD0290176
:104D4000F01DF930081880680121090608432A017E
:104D5000F11DF9315118886000BFA068002803D008
:104D60002046A268E1689047F8BD00002E2E5C63E3
:104D70006F6D706F6E656E74735C4D4B4C31365A4F
:104D8000345C647269766572735C66736C5F646DC3
:104D9000612E630068616E646C6520213D204E5574
:104DA0004C4C00007453000070B505462846FFF7D0
:104DB0006BFF800005490C58210C054A88180168D2
:104DC0000122A2401143016000BF70BD1C9400008D
:104DD00000700440FFB581B004460F4615460A9E98
:104DE000002C00D004E0BF2237A141A003F076F9E7
:104DF000002F00D004E0C02233A141A003F06EF9DF
:104E00000498002800D004E0C1222FA140A003F0A4
:104E100065F9012D03D0022D01D0042D00D104E04D
:104E2000C22229A13FA003F059F9012E03D0022E7E
:104E300001D0042E00D104E0C32223A148A003F036
:104E40004DF92760049860600B98E060012D04D054
:104E5000022D05D0042D09D105E00120607206E085
:104E60000220607203E00020607200E000BF00BF1B
:104E7000012E04D0022E05D0042E09D105E0012018
:104E8000E07206E00220E07203E00020E07200E041
:104E900000BF00BF0C98002804D0012806D00228CB
:104EA0000ED108E001202072A0720AE000202072DA
:104EB0000120A07205E0012020720020A07200E015
:104EC00000BF00BF05B0F0BD2E2E5C636F6D706F2C
:104ED0006E656E74735C4D4B4C31365A345C647243
:104EE00069766572735C66736C5F646D612E6300D6
:104EF000636F6E66696720213D204E554C4C000063
:104F00007372634164647220213D204E554C4C0005
:104F1000646573744164647220213D204E554C4C8D
:104F200000000000287372635769647468203D3D77
:104F300020315529207C7C20287372635769647462
:104F400068203D3D20325529207C7C2028737263E7
:104F50005769647468203D3D2034552900000000E5
:104F600028646573745769647468203D3D20315529
:104F700029207C7C202864657374576964746820D8
:104F80003D3D20325529207C7C2028646573745770
:104F900069647468203D3D203455290070B505468C
:104FA0000C46042C00D204E0672212A11BA003F0DF
:104FB00095F82101E81DF9300818806801210906DB
:104FC00008432201E91DF9315118886000212201AE
:104FD000E81DF93081502201101841602201E81DBE
:104FE000F9301018816018492201E81DF9301018B5
:104FF000C16070BD2E2E5C636F6D706F6E656E74D8
:10500000735C4D4B4C31365A345C64726976657210
:10501000735C66736C5F646D612E63006368616EC0
:105020006E656C203C2046534C5F464541545552BA
:10503000455F444D415F4D4F44554C455F434841AA
:105040004E4E454C000000008000002070B5044624
:105050000E461546002C00D004E0F92203A10DA055
:1050600003F03CF8A660E56070BD00002E2E5C6386
:105070006F6D706F6E656E74735C4D4B4C31365A4C
:10508000345C647269766572735C66736C5F646DC0
:10509000612E630068616E646C6520213D204E5571
:1050A0004C4C0000F8B506460D461446042D00D2BF
:1050B00004E0752222A12CA003F010F8002C00D0EF
:1050C00004E076221EA133A003F008F82A01F01DA7
:1050D000F930216881502A01101861684160E06848
:1050E0000102090A2A01F01DF93010188160290116
:1050F000F01DF9300818C7683F2149043846884335
:105100000746E07A4004032149040840A17AC90413
:105110000122D20411400843617A090503221205D5
:1051200011400843217A8905012292051140084364
:1051300007432901F01DF9300818C760F8BD0000C9
:105140002E2E5C636F6D706F6E656E74735C4D4B6D
:105150004C31365A345C647269766572735C66737E
:105160006C5F646D612E63006368616E6E656C20B8
:105170003C2046534C5F464541545552455F444D93
:10518000415F4D4F44554C455F4348414E4E454C61
:1051900000000000636F6E66696720213D204E5558
:1051A0004C4C000010B50446002C00D005E0232232
:1051B00012010BA114A002F091FF2068FF30013012
:1051C000217909014018C068012189070843216835
:1051D000FF310131227912018918C86010BD000029
:1051E0002E2E5C636F6D706F6E656E74735C4D4BCD
:1051F0004C31365A345C647269766572735C6673DE
:105200006C5F646D612E680068616E646C6520215E
:105210003D204E554C4C000010B50446002C00D0EB
:1052200005E0232212010BA114A002F057FF206811
:10523000FF300130217909014018C0680121890738
:1052400008432168FF310131227912018918C860B1
:1052500010BD00002E2E5C636F6D706F6E656E74F6
:10526000735C4D4B4C31365A345C647269766572AE
:10527000735C66736C5F646D612E680068616E6458
:105280006C6520213D204E554C4C0000F7B504467E
:105290000E46002C00D005E0FF22023222A12CA0F5
:1052A00002F01CFF002E00D005E0FF2203321EA1F9
:1052B0002BA002F013FF2068FF3001302179090193
:1052C00040188068012149060840002801D028487C
:1052D000FEBD21792068FFF761FE21793246206802
:1052E000FFF7E0FE0298C007C00F002819D025790B
:1052F0002768042D00D205E0FF226C321DA127A0F3
:1053000002F0ECFE2901F81DF9300818C0680121EF
:10531000C90708432A01F91DF9315118C86000BFB7
:1053200000BF0020D4E700002E2E5C636F6D706F0D
:105330006E656E74735C4D4B4C31365A345C6472DE
:1053400069766572735C66736C5F646D612E630071
:1053500068616E646C6520213D204E554C4C000008
:10536000636F6E66696720213D204E554C4C0000EE
:10537000881300002E2E5C636F6D706F6E656E7407
:10538000735C4D4B4C31365A345C6472697665728D
:10539000735C66736C5F646D612E68006368616E38
:1053A0006E656C203C2046534C5F46454154555237
:1053B000455F444D414D55585F4D4F44554C455FF9
:1053C0004348414E4E454C00FFB585B0002001904A
:1053D000059C2070641C0798002826D00698066853
:1053E000002E07D1302020700198401C01900198B8
:1053F00009B0F0BD16E030460899FBF735FA049085
:10540000089904984843371A002F04DA3D46E843C8
:105410000746313700E03037049E2770641C01983E
:10542000401C0190002EE6D12EE006980068039003
:105430000398002806D1302020700198401C01906C
:105440000198D5E71DE008990398FBF703FA02904D
:1054500008990298484303990D1A0A2D01D2303554
:1054600008E028460A380E99002901D0412100E0C1
:1054700061214518029803902570641C0198401C16
:10548000019003980028DED10198B1E70FB438B538
:105490000A480078002804D1401E38BC08BC04B07B
:1054A000184705A800900648009A049900F00AF8E9
:1054B0000446002000902046EFE70000C8F9FF1FD7
:1054C00025570000F7B596B0064600200C900B90CB
:1054D000099004900290179D0AE1252C05D02046E2
:1054E000B0470998401C099001E101200590002077
:1054F00008900A9011E0681C05460478302C09DBFE
:10550000392C07DC0A2108984843214630394018D5
:10551000089002E06D1E01200A900A980028EAD047
:1055200006200790681C054600782E2819D1002017
:1055300007900A9011E0681C05460478302C09DBBE
:10554000392C07DC0A210798484321463039401896
:10555000079002E06D1E01200A900A980028EAD008
:1055600000E06D1E681C05460478642C11D0692C7F
:105570000FD0662C0DD0462C0BD0782C09D0582C8F
:1055800007D06F2C05D0622C03D0702C01D0752C65
:105590007CD1642C01D0692C12D11898006803903A
:1055A0001898001D189005980A23012203A900905D
:1055B0000DA8FFF709FF0B900DA90B9808180C9088
:1055C000582C01D0782C16D1782C01D100200590D0
:1055D0001898006802901898001D189005981023DC
:1055E000002202A900900DA8FFF7EEFE0B900DA976
:1055F0000B9808180C906F2C05D0622C03D0702CDF
:1056000001D0752C29D11898006802901898001DB7
:105610001890622C09D06F2C04D0702C08D0752CF7
:105620000CD108E00820049009E00220049006E074
:105630001020049003E00A20049000E000BF00BFA7
:1056400005980090002202A90DA8049BFFF7BCFE5C
:105650000B900DA90B9808180C9009AB0096202010
:10566000089A0B9900F04BF80C9800283ED007E000
:105670000C990878491E0C91B0470998401C099074
:105680000C9800780028F3D130E0FFE7632C0BD1B1
:1056900018980178001D1890C8B206900698B04777
:1056A0000998401C099021E0732C1AD1189880C8E1
:1056B0001890002F1AD03846FBF730F80B9009AB42
:1056C00000962020089A0B9900F019F805E0387828
:1056D0007F1CB0470998401C099038780028F6D103
:1056E00004E02046B0470998401C099000BF6D1C9B
:1056F0002878041E00D0F0E6099819B0F0BDFFB577
:1057000081B00D4616461C462F4606E00A990198C0
:1057100088472068401C20607F1CB742F6DB05B03C
:10572000F0BD000001B507480078002801D1401EF7
:1057300008BD0449486801228B68694698470120E2
:10574000F6E70000C8F9FF1F10B504467F20C043EC
:10575000844200D110BD204600F0D8FE00BFF9E71A
:105760007F21C943884200D1704700BFC206D20ED4
:1057700001219140024A116000BF00BFF4E7000020
:1057800000E100E07F21C943884200D1704700BF9B
:10579000C206D20E01219140024A116000BF00BF33
:1057A000F4E7000000E100E0FFB58BB007460C46CF
:1057B00003AA2146384603F083FB21463846079B5F
:1057C0000D9A03F029FB0646002E02D030460FB09A
:1057D000F0BD0E9803F03EFB0646002E01D0304689
:1057E000F5E7039C049D0D982018401E0290294661
:1057F0000298FBF72FF8002909D029460298FBF7F9
:1058000029F8401C019001986843401E0290002135
:10581000384603F0E0FA13E02002000A09210906E5
:1058200008430C494860384603F01EFB06463869B9
:10583000002801D038698047002E00D003E06419A9
:1058400002988442E8D900BF384603F0BDFA3046DA
:10585000BDE700000000024010B50446002C01D056
:10586000002A01D1042010BD0B0002F013FC0A062F
:10587000090C0F1215181B1E2124E06810601CE093
:105880006068106019E06068106016E0207A1060AF
:1058900013E02068106010E0002010600DE06069E7
:1058A00010600AE0A069106007E0206A106004E060
:1058B000606A106001E06A20D5E700BF0020D2E7EF
:1058C00010B50446002C01D1042010BD174AD2683F
:1058D0000F231B061A40110E0F2902D101200004CC
:1058E00003E04A00124B9A5A900200222260606044
:1058F000012222729202E26000206061A0612061B8
:10590000204603F079FA00280BD0002009490860EE
:1059100009484860094888600846E061204600F070
:1059200035F800202062606200BFCEE7408004406E
:105930005C94000068FAFF1FE8F9FF1F28FAFF1FB8
:1059400002461149107801280AD15078002801D167
:105950007820704708680123DB031843086011E0D2
:1059600008680123DB03984308605078002804D1BD
:1059700008685B101843086004E0086801239B0373
:10598000984308600020E4E70C3000F070B505464D
:10599000002D01D1042070BDEC69606803F004FAA9
:1059A000A06803F0EBF9022020600020F3E700007C
:1059B000FFB589B00D4614461E46002C02D10420C6
:1059C0000DB0F0BD01AA2946099803F079FA3246D4
:1059D0002946049B099803F01FFA0746002F01D0BF
:1059E0003846EDE7019D0021099803F0F4F92CE019
:1059F00001CC1A4988600498042807D12802000ABB
:105A0000032149060843154948600CE0049808281A
:105A100009D101CC1149C8602802000A07210906F2
:105A200008430E494860099803F01EFA0746099892
:105A30000069002802D0099908698047002F00D02A
:105A400005E0049845190498361A002ED0D100BFFD
:105A5000099803F0B9F93846B2E7000000000240A7
:105A600070B504460D461646002E00D004E04B22C9
:105A70000FA11AA002F032FB3078002805D161692D
:105A80000120A8408143616110E028467178002917
:105A900003D101228240A26002E0012282406260C2
:105AA00000BF60690121A9400843606170BD00002A
:105AB0002E2E5C636F6D706F6E656E74735C4D4BF4
:105AC0004C31365A345C647269766572735C667305
:105AD0006C5F6770696F2E6300000000636F6E6615
:105AE0006967000002461069C840C007C00F7047D0
:105AF000002A03D101238B40836002E001238B4005
:105B000043607047002A03D101238B40836002E089
:105B100001238B4043607047002A03D101238B404F
:105B2000836002E001238B404360704710B5044658
:105B300002480470FDF75EF810BD0000C4F9FF1FB5
:105B400070B505460C4602202040002805D0FDF720
:105B5000D1F820460221484070BD04202040002892
:105B600003D0204604214840F6E70020F4E7000077
:105B700003E002A1002001F0FBF9FAE7486172643A
:105B80004661756C745F48616E646C65720D0A00E5
:105B900070B504460E4615462A4631462046FAF7A9
:105BA000DFFD601970BD70B502460B460024002170
:105BB0000025511CD81E85B203E00E78491C30190F
:105BC000C4B228466E1EB5B20028F6D10878A042AD
:105BD00001D1012070BD0020C043FBE770B5024633
:105BE000002000230024531CCD1EACB203E01E781D
:105BF0005B1C3518E8B22546661EB4B2002DF6D1FE
:105C000070BD000018B50246002400946B461B7856
:105C10005B1CDCB200940123DB030B40002B05D09E
:105C2000802353711C020B46A343194601239B0397
:105C30000B40002B05D0402353711C020B46A3439D
:105C40001946CB06DB0E002B04D0CB06DB0E1371FE
:105C500049094901002901D0014800E0002018BD90
:105C6000B404000070B5054600BF28794021084003
:105C70000028FAD0284600F07FF8800005490C582B
:105C8000210C054A881801680122A2409143016055
:105C900000BF70BD8494000000700440064A1140AB
:105CA00002780A430270C2780B0A1A43C2708279E2
:105CB0000B0C1A4382717047C0F00F00002904D00A
:105CC000C27804231A43C27003E0C27804239A43C3
:105CD000C2707047002907D0C27A20231A43C272CB
:105CE000C2781A43C27006E0C27A20239A43C27275
:105CF000C2789A43C2707047002907D0C27A8023C5
:105D00001A43C272C2781A43C27006E0C27A802374
:105D10009A43C272C2789A43C270704710B5044663
:105D2000002C00D005E0FF22563206A110A002F0A0
:105D3000D5F9E12040022060002020716071A0713F
:105D4000E07110BD2E2E5C636F6D706F6E656E74AA
:105D5000735C4D4B4C31365A345C647269766572B3
:105D6000735C66736C5F6C707363692E6300000014
:105D7000636F6E666967000070B50546002406E033
:105D8000A00009490858A84200D102E0641C002C78
:105D9000F6D000BF002C00D104E0902203A10EA099
:105DA00002F09CF9204670BD7C9400002E2E5C63AE
:105DB0006F6D706F6E656E74735C4D4B4C31365AFF
:105DC000345C647269766572735C66736C5F6C7068
:105DD0007363692E63000000696E7374616E63659E
